:020000022000DC
:1070000000000220797302006173020063730200C2
:1070100065730200677302006973020000000000DC
:107020000000000000000000000000006B73020080
:107030006D730200000000006F73020071730200A4
:10704000E1D2020073730200D1C8020051CF0200E6
:10705000F1CB0200737302004DC7020079510300A7
:107060007373020073730200737302007373020080
:107070007373020073730200737302007373020070
:1070800073730200A584020073730200737302001D
:107090007373020073730200ED4B030073730200FD
:1070A0007373020073730200737302007373020040
:1070B00001D3020073730200000000000000000012
:1070C0007373020073730200737302001DCC02001D
:1070D000E5CA02006D56030073730200D5E1020099
:1070E00011CA0200000000000000000000000000C3
:1070F00000000000737302000000000073730200C0
:10710000000000000000000000000000000000007F
:10711000000000000000000000000000000000006F
:10712000000000000000000000000000000000005F
:10713000000000000000000000000000000000004F
:10714000000000000000000000000000000000003F
:10715000000000000000000000000000000000002F
:10716000000000000000000000000000000000001F
:10717000000000000000000000000000000000000F
:1071800000000000000000000000000000000000FF
:1071900000000000000000000000000000000000EF
:1071A00000000000000000000000000000000000DF
:1071B00000000000000000000000000000000000CF
:1071C00000000000000000000000000000000000BF
:1071D00000000000000000000000000000000000AF
:1071E000000000000000000000000000000000009F
:1071F000000000000000000000000000000000008F
:10720000364937480A1A02D0072291438D4635493C
:1072100035480A1A06D00722914381F309880222D1
:1072200082F3148831483249324A00F045F8324836
:107230003249334A00F040F832483349334A00F0CB
:107240003BF833483349344A00F036F83348344980
:10725000344A00F031F834483449354A00F02CF80B
:1072600034483549354A00F027F835483549002279
:1072700000F02DF834483549002200F028F8344851
:107280003449091A082903DB002202600430016036
:10729000314A90471F482049884205D0026804308F
:1072A00003B4904703BCF7E700208646EC46002075
:1072B00000212A4A9047FEE7884207D0521A05D09B
:1072C000037801300B700131013AF9D170478842DF
:1072D00002D002700130FAE770470000000002207F
:1072E00000F801200000022000000220DC8A0300D8
:1072F000102B0020142C0020D4730200D473020041
:1073000030620300DC8A0300102B0020102B0020C9
:107310001C6403001C6403001C6403001C64030061
:107320001C6403001C6403001C6403001C64030051
:10733000DC8A0300E08B0300142C0020142C0020B6
:10734000142C0020E0C90020E0C90020E0C9002082
:10735000E0C90020E0D10020A173020041E9020051
:10736000FEE7FEE7FEE7FEE7FEE7FEE7FEE7FEE7F5
:10737000FEE7FEE700F002B8FFF7FCBF0F484FF052
:107380000701884385460E4880470E48016841F44E
:1073900070010160BFF34F8FBFF36F8FFFF730BFF6
:1073A00009480A490A4A884207D0521A05D0037888
:1073B00001300B700131013AF9D170470000022011
:1073C0008DC1020088ED00E0F4630300E82A00208C
:0473D000102B00205E
:1073D4007047000007B5044B0093044A402300F0B3
:1073E40032F803B05DF804FBF5730200152C00209D
:1073F4002DE9F84389461446B2B10F4B0F4E0325CD
:10740400002743F00108224609EB0701002008F099
:1074140077FF0744241A48B933782BB14FF47A40E4
:10742400C047013D02D13570BDE8F88301233370B4
:10743400002CE8D1F8E700BF20640300142C0020DE
:10744400704708F091BFF0B595B01C461646084643
:107454000D4601F044FC1A9B0D93CDE90864002409
:107464002346082205A928460A948DF82C400C943A
:1074740001F053FC079B0293BDF81830ADF80C30B3
:10748400BDF81A30ADF80E309DF814308DF8114067
:1074940003F00302012A1DD1BDF81440059EC3F375
:1074A400C203C4F383148DF81030A20008230EA97C
:1074B400284601F032FCC6F3952608AB0093224619
:1074C40002AB0EA9304600F05FFB284601F00BFC2E
:1074D40015B0F0BD022AF8D1BDF81640C3F3C203BB
:1074E400A4098DF810300827082C264628BF082642
:1074F4003B4632460EA9284601F00FFCA41B08ABFC
:1075040002AA31460EA8374400F0A2FB002CEBD1AE
:10751400DBE7000008B5FFF794FF0421034800F0FF
:10752400A3FA034B01225A7108BD00BFE4630300B0
:10753400102B0020037813F0040216D003F0030389
:10754400012B03D0022B09D0012070470A68008860
:107554000232C0F3831002440A60F5E70B684288E4
:10756400023303EB92130B60EEE710467047000002
:107574002DE9F04F87B00446851C06A8002300F8C7
:10758400113D0E46904600F01FFE444A5368336096
:107594009368516803F580735B1A924602F21C46A5
:1075A40002F5836902F21447AB421BD30023B8F1FE
:1075B400000F6BD0012262F3010343F0040364F370
:1075C4008913DAF804209DF80700D1B20331154479
:1075D4004AF82130CAF8045000F01AFE012007B01E
:1075E400BDE8F08F0121304601F0A6F8484601F0CD
:1075F400C9F8384601F0C6F80DF1180BDAF808009E
:107604004BF8100DC0B203300AEB80005946FFF767
:1076140091FF029BA0B9DAB20AEB8202D16803910E
:107624009A1C0133DBB20AEB83030292D3F80CB049
:1076340001F00303012B21D0022B03D083460AE07F
:10764400D8B2E0E7BDF80E309B0903334FEA1B4B79
:1076540002EB93030293384601F097F810B1029BB2
:10766400CAF808305946304601F066F8DAF80830AE
:10767400DAF8042003F580739B1A95E7BDF80C3003
:10768400C3F383134FEA1B4B1344E3E7022262F371
:10769400010343F0040364F39F5392E7282D002071
:1076A400064B074810B500221A7001F0D1FA0446BF
:1076B40010B9044801F0D6FB204610BD282D002047
:1076C400C06203004464030030B50A4C71B10A4A35
:1076D4000A49121BD20800239A4201D1002030BD6E
:1076E40031F82350854202D00133F5E7034654F8BC
:1076F4003300F4E7D4620300E4630300102B00209A
:10770400094B013903EBC000032909D8DFE801F074
:107714000A020406042070470079704740797047D4
:107724000020704702207047D4620300034BD3E962
:107734000130C31A58425841704700BF282D002019
:107744002DE9F04186B0FFF7F1FF0546002840F02F
:10775400E780744CC4F81804BFF34F8FA06806AEDA
:1077640046F8100DC0B2033004EB80003146FFF739
:10777400E1FE029B18B1D4F81824002A53D0DAB2DF
:10778400991C013304EB8202DBB204EB8303D2685D
:10779400DB68049302F00303022B039202914FD19E
:1077A400BDF80E3060484FEA93184746502F28BF63
:1077B400502767F38F1307F10801ADF80E3001F07D
:1077C4005FFA0546002800F0968001F088FA03A9C4
:1077D40000230822284601F095FA0299CE43F6B216
:1077E4000136B600C9B20331B74204EB810124D992
:1077F40008233246BF1B284601F084FAFFB24B49E6
:1078040006F108033A46284601F07CFA029B08F187
:10781400030803EB98030293D4F81834002B43D1E4
:10782400D4F8106453E062689A4204D8A2602846EF
:1078340006B0BDE8F081D8B295E708233A46E2E7FE
:10784400012B58D1BDF80C303748C3F383110629F6
:1078540028BF062161F3891302318900ADF80C3089
:1078640001F00EFA0546002845D001F038FA00234D
:10787400082203A9284601F045FA0026BDF80C2089
:10788400C2F38312B31C96424FEA8303C4D2029913
:107894004A1CC9B20331029204EB81010422284636
:1078A40001F030FA0136E9E7284601F01CFAFFF747
:1078B4003DFF80F00100C5B2B9E7F3685B7923B1FD
:1078C400336829461B6830469847F3681E68002EC3
:1078D400F3D1284601F007FA06A800F8116D00F06C
:1078E40073FCD4F818340BB9029BA3609DF807000D
:1078F40000F08EFCDBE7D4F8104454B90C4B0D486F
:107904000D49C01AC008000440F0020000F068F8F5
:10791400CDE7236820469B689847E3681C68ECE73A
:10792400002584E7282D0020C0620300342D0020A8
:10793400D462030024630300506403002DE9F34779
:1079440080460F46924601A9012218469946FFF740
:107954000FFE214D78B3019C0026A11C4E4506EB79
:10796400010231D100211D4800F0A5FE80F3100072
:10797400631CDBB205EB8303000440EA1840D860C3
:10798400E3B20333012115F8232068F3C50205F897
:10799400232035F8232066F3891225F8232055F88F
:1079A400232067F39F2245F8232061F301026FF33C
:1079B400820205F823202B781BB1FFF7C1FE0028B3
:1079C400FBD102B0BDE8F087D2B205EB82025AF8CF
:1079D4002630D3600136C1E7282D00204431002031
:1079E40000231A46FFF7AABF13B502AC012344F8DB
:1079F400042D2246FFF7A2FF02B010BD07B5CDE962
:107A0400002302236A46FFF799FF03B05DF804FBE5
:107A14001FB5CDE90123069B039301AA0323FFF7B6
:107A24008DFF05B05DF804FB1FB5CDE90023069B6F
:107A34000293079B03936A460423FFF77FFF05B075
:107A44005DF804FB7FB5CDE90023089B0293099BF5
:107A540003930A9B04930B9B05936A460623FFF743
:107A64006DFF07B05DF804FB30B50F49D1F8102461
:107A7400002314463CB9C468237152B9C1F81004F8
:107A84002260184630BDE46825799D4206D02468FA
:107A9400F0E7D268116821601060F2E701330A2B25
:107AA400E7D14FF0FF33ECE7282D0020084A38B522
:107AB4000123D2F8104413701D4604B938BDE3689D
:107AC4005D71236820465B689847E3681C68F4E7A7
:107AD400282D0020037A052B10B50C460FD0437ACD
:107AE40023B1084A0849204600F0B0FE0749204661
:107AF40000F0ACFE2046BDE8104000F09CBE002A19
:107B0400F8D0F3E79B640300937D0300BD64030096
:107B1400C38873B504460D4633B1144A0092144920
:107B2400144A284600F092FE217A05291CD0637A73
:107B34004BB1A088FFF7E4FD0F4B104953F8202008
:107B4400284600F083FE227A0D4BA08853F8226069
:107B54000021FFF7B9FD0B4903463246284602B01F
:107B6400BDE8704000F072BE02B070BD9B640300BB
:107B7400A8640300A064030068640300937D030009
:107B8400CC640300C06403002DE9F04385B01F46B4
:107B94000C9D002306460C46904695F80C902B73DA
:107BA40029463846FFF7B4FFB8F1060F09D8DFE8D5
:107BB40008F00412181F283340003146284600F00C
:107BC40045FE002229463846FFF784FF85F80C90CD
:107BD40005B0BDE8F08322683146284600F036FE41
:107BE400EFE7D4E900233146284600F02FFEE8E70A
:107BF400A36800933146D4E90023284600F026FE0A
:107C0400DFE7E3680193A36800933146D4E90023D6
:107C1400284600F01BFED4E723690293E36801932E
:107C2400A36800933146D4E90023284600F00EFEF1
:107C3400C7E76369039323690293E3680193A36825
:107C440000933146D4E90023284600F0FFFDB8E74D
:107C540008292DE9F84F80460E4617461C463AD8A7
:107C6400002593F80C901D7319461046FFF750FF3A
:107C7400DFF884A0DFF884B0AE422ED918F80520CE
:107C84005946204600F0E2FD0135082DF4D118498B
:107C9400DFF86CB0204600F0D9FD4FF0000A5645DD
:107CA40020D918F80A507E2D03D828460DF0E8FD97
:107CB40000B92E252A465946204600F0C7FD0AF190
:107CC400010ABAF1080FEAD1012221463846FFF72A
:107CD40001FF84F80C90BDE8F88F5146204600F06F
:107CE400B5FDD1E70349204600F0B0FDE7E700BF4A
:107CF4009664030094640300926403008C6403009C
:107D0400986403001FB50021039001AA44F2010006
:107D1400CDE9011100F004F805B05DF804FB0000A2
:107D240010B572B6FFF7C2FEFFF70AFD0028FBD1BB
:107D3400104B114C1149E41AE408240444F00100E6
:107D4400FFF74EFE0E4B1B68DB0700D500BE0D4946
:107D540044F00200FFF744FEBFF34F8F0A490B4B78
:107D6400CA6802F4E0621343CB60BFF34F8F00BFD5
:107D7400FDE700BFD46203002463030036650300FB
:107D8400F0ED00E04265030000ED00E00400FA05B8
:107D940049B152B1531E1A4007D1826001608380F9
:107DA400C260104670470E2070470920704710B516
:107DB4008468C2688388121B934208D3C268134044
:107DC4000268D154C3680133C360002010BD04208D
:107DD400FCE7C36883600020704770B5D8B1D2B1A6
:107DE4008468C3681B1B14681360B3B1B9B1A342A0
:107DF40028BF2346CD188D4202D11360002070BDE8
:107E04008668848834400668345D01F8014B8468D0
:107E140001348460EFE70E20F1E70520EFE7084620
:107E2400EDE7F0B5F0B1EAB185688388C468013341
:107E3400641B1B1B14681360B3B1B9B1A34228BF00
:107E44002346CD188D4202D113600020F0BDC668D0
:107E5400848811F8017B344006683755C4680134BE
:107E6400C460EFE70E20F1E70420EFE70846EDE7F2
:107E7400D0E90223D1E90201994208BF90422CBF04
:107E840001200020704700002DE900480C4800F054
:107E9400F1FA0C4BD3E9002312EB000B43F1000C75
:107EA400094BD3E900239C4508BF934558466146D6
:107EB40003D21BF180704CF10001BDE8008800BFC3
:107EC400182B0020E83100206032002037B5054629
:107ED4000C460A4801A900F022FB60B10570446019
:107EE40001A9064800F045FB18B1054800F0C6FAA0
:107EF400002003B030BD0420FBE700BF4C3200205B
:107F0400182B0020194B1B782DE9304804461BB967
:107F140000252846BDE830880028F9D0037F03F007
:107F2400FF05002BF4D0FFF7AFFFD4E902239942F9
:107F340008BF904215D3236903B92377D4E90530E8
:107F4400984721690029E3D0237F03F0FF05002B24
:107F5400DED0D4E9022312EB010B43F1000CC4E997
:107F640002BC2146024800F09CFFD2E7F031002019
:107F74005065030013B50023ADF8043006238DF8D3
:107F84000630582208230E490E4800F093FA04469E
:107F940098B90D4A0D4801A900F05EF9044660B98C
:107FA40001210A4800F048FA0123094A0748194602
:107FB40000F0ACF9074B01221A70204602B010BD44
:107FC400F43100204C3200203D800200182B0020A8
:107FD400FFFF7F00F03100203AB103685A614A1E66
:107FE400514251411961002070470720704738B54C
:107FF400037F04460D4683B98261FFF745FF4219AA
:1080040041F10003C4E90223236903B12561214638
:108014000020BDE83840FFF759BF002038BD0023D9
:10802400014603770120FFF751BF0000014800F02B
:1080340021BA00BF182B00202DE9F74F064600F0A7
:1080440003FA40B15849D1E9002312F1807443F195
:108054000005C1E900450021304600F004FA38B1BA
:10806400524C236823B12068FFF74CFF00232360A0
:108074000121304600F0F7F920B1FFF705FF4C4B22
:10808400C3E9000101A94B48484D4B4C4B4F00F04C
:1080940080FA002844D1DFF820A1444CDFF824B151
:1080A400504600F014FF2368002874D07BB1236885
:1080B400D0E90201D3E90223994208BF90422CD2AD
:1080C40023681B7F1BB12168504600F0EAFE50462E
:1080D40000F0F7FED0E902890746FFF7D5FEB8EBBA
:1080E400000869EB010940464B46012873F100037F
:1080F40044DB334DA8453FD9FFF798FF42194FF4AD
:1081040016030021584600F021F900283ED12368C7
:1081140013B9304600F0F2F8276003B0BDE8F08FE1
:108124000378012B1DD00BD3022B11D14FF0000883
:10813400204600F0C6FE002833D080F81C80F7E704
:1081440041680B7F23B901230B77204600F0A9FE79
:1081540001A9184800F048FA01A9164800F019FAD4
:1081640097E741682B68994202D100232B60EFE71F
:10817400204600F0AFFEEBE7BA68C0E7002158469E
:1081840000F067F93846FFF7BDFE01E00D28F9D08D
:108194000023236084E7002BBFD1304600F0B2F8FF
:1081A400BBE701233B70D3E7E831002068320020AD
:1081B400603200204C32002050650300F031002072
:1081C400FFFF6900182B002070B5EFF3108672B61C
:1081D4000C4A946801239CB993600B4B0B4DD3F864
:1081E400801029401160C3F88050D3F88410516086
:1081F4004FF0FF32C3F88420047006B962B670BD34
:108204000370FAE76C32002000E100E0FC06FFBDD9
:10821400084B9A6810B55AB150B9EFF3108172B691
:10822400054A1C6814605C685460986001B962B6C1
:1082340010BD00BF6C32002000E100E0435882B062
:108244003BB10023435043580193019B012002B0EA
:1082540070471846FBE70000F8B5204B4479204EE0
:1082640043F824201F4A204B06EBC4049B1A2279AE
:10827400DB081B0432B143F002001C49FFF7B0FBDA
:108284000820F8BD02680C88C2F8084590F904502B
:108294008A78002D4FEA4212ECB2D2B219DB1449AB
:1082A4004F1987F8002301226D0904F01F0402FA14
:1082B40004F441F82540427906EBC20101240C7113
:1082C40046F832000B4943F00300FFF789FB002016
:1082D400D7E704F00F0408490A55ECE78032002080
:1082E40078320020D462030034630300766503000F
:1082F40000E100E09865030014ED00E0036801224A
:108304001A607047036801225A60704773B58D0084
:1083140005F5A0750068ADB24FF480348C4000269A
:10832400C0F80843C0F84843465101F5A8714559BF
:10833400019522F07F42019D40F82120C0F844437A
:108344000BB1C0F8044302B070BD00002DE9F74F33
:108354008E0098464FF4803503688D4006F5A07969
:10836400C3F848531FFA89F9C3F808530746981904
:108374008A464FF0000BD3F8041522F07F44D0F85E
:108384004025C0F8401543F809B053F8093000936C
:10839400009B531A23F07F43012B0CD1254B4FF440
:1083A400806043F0010398473B6843F809B053F8F1
:1083B40009300193019B3868D0F80495C0F8445300
:1083C400A4EB090323F07F43012B1AD10AF5A87A01
:1083D400184B013440F82A4043F001034FF4806005
:1083E40098473B68D3F80435994508D13B68002089
:1083F400C3F84453C3F8045303B0BDE8F08F0D2011
:10840400FAE70644C8F1FF18C6F84045D0F8043529
:10841400E21A013A22F07F4208F57F489045EED3F4
:10842400002AE3D10134C6F84045D0F8042593422C
:10843400DBE700BF7065030003680222C3F844232E
:1084440009B1C3F8042370474FF482710068FFF741
:10845400F5BE4FF4803303FA01F10368C3F84813FF
:10846400C3F808137047890001F5A07189B2006848
:10847400FFF7E4BE0368D3F80405704790F90430AD
:10848400002B09DB5A09012103F01F0301FA03F34E
:108494004032024941F82230704700BF00E100E059
:1084A400024B034A1B681068184700BF8032002043
:1084B4007832002010B561B1B2FBF3F403FB14244D
:1084C400A4B244B9C0E9001484608281C381204607
:1084D40010BD0E20FCE70920FAE782B050E8022F15
:1084E400C188B2EB324F4FF0000317BF92B241EA9A
:1084F400014142EA014104E04268B2EB324F08BF55
:10850400012340E80212002AE8D18DF807309DF8D3
:108514000730002B0CBF1120002002B0704737B584
:1085240050E8013F9DB2C48925448489A54228BFEF
:108534002D1B0489A54202BFBFF32F8F002207E041
:10854400C5EA030540E80154002CE9D14FF00102CB
:108554008DF803200193019B9DF803200B6002F02A
:10856400FF0322B10B880068184403B030BD1846DD
:10857400FBE70A884B889A4209D150E8012FC2EAE6
:10858400024240E80123002BF7D10120704700206C
:10859400704737B550E8023F1FFAA3F5C488A542D7
:1085A40002BFBFF32F8F00220DE0C48925448489C4
:1085B400A54228BF2D1BC3EA054540E80254002C00
:1085C400E8D14FF001028DF803200193019B9DF83F
:1085D40003200B6002F0FF0322B14B8800681844AB
:1085E40003B030BD1846FBE70A884B889A4209D18C
:1085F40050E8022FC2EA224240E80223002BF7D1BE
:10860400012070470020704701F01F024B0901212F
:10861400914000EB830000F063B84B0910B501F002
:108624001F040121A14000EB830000F04EF8E0405C
:1086340000F0010010BD01F01F0301229A404B0914
:1086440000EB8300D14300F061B84B0901F01F0136
:1086540050F82300C84000F0010070472DE9F047AE
:108664004E1E760980460F460136002558F82540EF
:1086740008EB8509E44394FAA4F4B4FA84F44FEAC9
:10868400451A202C06D10135AE42EFD83C4620468F
:10869400BDE8F0875444A742F5D921464046FFF788
:1086A400BCFF0028F3D0D9F80040E44394FAA4F4C2
:1086B400B4FA84F4E5E750E8002F0B4640E8003CA8
:1086C4009CF0000FF7D11046704750E8002F42EAA3
:1086D400010340E8003C9CF0000FF6D110467047BF
:1086E40050E8003F43EA010240E8002C9CF0000FF0
:1086F400F6D11046704750E8002F02EA010340E823
:10870400003C9CF0000FF6D11046704750E8003F43
:1087140003EA010240E8002C9CF0000FF6D1104659
:10872400704750E8002F02EB010340E8003C9CF046
:10873400000FF6D11046704750E8003F03EB0102EA
:1087440040E8002C9CF0000FF6D11046704750E82A
:10875400003FA3EB010240E8002C9CF0000FF6D18F
:108764001046704750E8003F8B422CBF5A1A1A46F5
:1087740040E8002C9CF0000FF4D110467047012112
:10878400FFF7A3BF0121FFF7ABBF0021FFF7B3BF82
:1087940010B590B1D0E9012301689B1ADBB20A60DD
:1087A400013BDBB2FF2B026802D10020107110BD27
:1087B40011684C1C14600B70F2E70E20F7E737B514
:1087C400054602A8002400F8014DFFF7FDFC2A68C5
:1087D4006B68116899420ED9481E106011F8014C5B
:1087E400EB68298A01FB0434AB6811791B1ADBB2EC
:1087F400994238BF13719DF80700FFF709FD204621
:1088040003B030BD37B5054602A8002300F8013D8A
:108814000C46FFF7D9FC2A681368591C1160E968F3
:10882400641A298AB4FBF1F41C709DF80700FFF761
:10883400EFFC03B030BD826810B504462AB1436929
:108844000168006998470023A36010BD0EB403B506
:10885400039929B102AA04AB42F8043D00F072F86E
:1088640002B05DF804EB03B070470A2938B504463A
:108874000D4602D10D21FFF7F8FFA3682268591CA9
:10888400A160D554D4E901329A4204D32046BDE80C
:108894003840FFF7D0BF38BD2DE9F84F9946DDE9E0
:1088A4000A431746824688460A460126BA420FD230
:1088B4004E4538BF4E4613F0010B01D164B9002474
:1088C4000125B9F1010F1AD909F1FF397D43F8E700
:1088D400B2FBF7F20136E9E79B070ED5B9F1000FB9
:1088E4000CBF30252025A642EAD2013C2946504639
:1088F400FFF7BBFF002CF6D1E1E72025F3E7B8FB37
:10890400F5F39F42E2D9DFF83890B8FBF5F350460F
:1089140019F8031005FB1388FFF7A7FFB5FBF7F55C
:10892400002DF2D1BBF1000F02D00CB1A64201D34D
:10893400BDE8F88F20215046013CFFF796FFF4E78D
:10894400AA6503002DE9F74F054690460E46002917
:1089540000F03A8116F8011B002958D0252940F06F
:10896400D180002702E047F001071646324612F88C
:10897400013B2D2BF7D0302B04D02B2B05D147F006
:108984000407F2E747F00207EFE700242A2B06F179
:1089940001021BD1D8F80030191D1B68C8F800105B
:1089A4001C44164633782E2B1CD101364FF0000A96
:1089B400314611F8012BA2F13000092814D80A23FA
:1089C40003FB0A23A3F1300A0E46F1E712F8013C37
:1089D400A3F130010929E5D80A2101FB0434303C14
:1089E4001646D3E74FF0000A324612F8011B01F095
:1089F400FB0068281646F8D0692916D054D858299F
:108A040070D00ED825297DD03378002BA2D12B7BB2
:108A1400002B00F0D980284603B0BDE8F04FFFF7E3
:108A24000ABF632968D06429EED1D8F80020D2F8AF
:108A34000090111D89EAE972C8F80010A2EBE972EE
:108A44004FF0010B092A61DCD34538BFD3462CB162
:108A5400B9F1000F01DB790700D5013CBA0702D553
:108A6400BAF1000F04D0FB0702D4002C54D1002427
:108A7400B9F1000F58DAC9F100092D212846FFF792
:108A8400F4FE07F00302022A05D1BAF1000F02D165
:108A9400002C4DD10024CDE9004753460A22494613
:108AA4002846FFF7F9FEAFE7732954D016D870298A
:108AB400AAD1D8F800301A1DC8F800203021284661
:108AC4001C68FFF7D2FE78212846FFF7CEFE00226D
:108AD4000823CDE9003221461022E1E775292FD081
:108AE400782991D1D8F800100A1DC8F80020CDE9E2
:108AF4000047534610222CE0D8F800301A1D19788C
:108B0400C8F800202846FFF7B0FE7DE70A230BF1E2
:108B1400010B92FBF3F295E7A345A9D22021284645
:108B2400013CFFF7A2FEA0E77807AAD52B21A5E711
:108B3400A345B0D230212846013CFFF796FEA7E7B3
:108B4400D8F80010CDE900470A1DC8F800205346A4
:108B54000A220968A4E7D8F800301A1DC8F80020D2
:108B6400F907D3F8009012D54F46A7EB090B17F875
:108B7400011B41B9A345BFF447AF20212846013C5E
:108B8400FFF773FEF6E72846FFF76FFEEDE7B9F14E
:108B9400000F17D048460CF080FF0746BC4200D9AE
:108BA40054B909F1FF3919F8011F00293FF42CAF1A
:108BB4002846FFF75AFEF6E720212846013CFFF736
:108BC40054FEEBE74F46E9E703B0BDE8F08F2DE92B
:108BD400F047B0F806904479D2F800A09DF82080C0
:108BE40009FB04F4043C06460AEB0300A0420F46CA
:108BF40088BFA4EB030A191DC2F800A0B1FBF9F564
:108C040009FB15114DB9A9EB0104544528BF54467D
:108C1400BAF1000F04D1BDE8F0873668013DF1E7F1
:108C240004317B1970182246B8F1000F0ED00146AA
:108C34001846AAEB040A0CF0B2FED1452544366866
:108C44004C464FF0000128BF5446E1E71946F0E7CF
:108C5400FFF79EBDF8B546790146721E054600230E
:108C640093422D6803D30024A64202D8F8BD0133F1
:108C7400F6E70F682846FFF7C5FD01343946F3E7E8
:108C84002DE9F843068ACD1C0746FFF798FD043EFC
:108C940035440446B5FBF6F5F0B14FF48073EDB2FC
:108CA4008380C680013D076081464FF00008A845D7
:108CB40012D23846FFF783FD064648B16379013383
:108CC400637108F10108C9F8000007608146EEE706
:108CD4002046FFF7BFFF34462046BDE8F883012154
:108CE4000430FFF729BD10B5012104460430FFF715
:108CF4002EFD10F0FF0F04D12046BDE81040FFF711
:108D0400A9BF10BD1FB504AC44F8042D0022009285
:108D14002246FFF75CFF04B010BD1FB504AC44F855
:108D2400042D012200922246FFF751FF04B010BD2A
:108D340033DF704741DF7047064B10B500241C70C9
:108D4400054B1C60BFF35F8F0449054800F093F89E
:108D5400204610BD8D32002090320020BC650300F7
:108D64008432002007B502A8002300F8013DFFF774
:108D74002BFAF1EE103A23F09F03E1EE103ABFF321
:108D84005F8F0A4B4022C3F884219DF80700FFF748
:108D94003FFA0BF00FFF20B1FFF7CCFF03B05DF8F3
:108DA40004FB20BF40BF20BFF8E700BF00E100E0A4
:108DB40070B5264C054601212046FFF77CFCBFF325
:108DC4005F8F264638B9042D0AD0214B1A781AB180
:108DD400BFF35F8F206070BD1E4A157001221A70A8
:108DE4001D4C1C4D6368BBB9FEF760FEFEF7A8FC82
:108DF4000028FBD1174B1B78023B012B14D8BFF37F
:108E04004F8F1649164BCA6802F4E0621343CB60D5
:108E1400BFF34F8F00BFFDE71B682878984788B1E0
:108E2400204600F032F8DDE70BF0C4FE08B1FFF78E
:108E34007FFF4FF080430122C3F80025BFF34F8F1B
:108E440020BFFDE7BFF35F8F3060C4E7903200209E
:108E54008D3200208C3200208432002000ED00E0AE
:108E64000400FA05836800225A609A60C3E9042268
:108E7400DA601A6070470B684A684360934208BF1F
:108E84000023016008BF43607047436843B1026830
:108E9400916852680B449342436004BF00234360CB
:108EA400704770B5446806460D46206818B1B3682B
:108EB4002946984718B923682B60256070BD24683B
:108EC400F3E74368186808B102681A60704743689A
:108ED400186870474368186800B970478842026888
:108EE40002D11A600120704703461046F4E70000DF
:108EF4000D4930B5A1F594720225914201D80020A4
:108F04000EE08B1ADB1093FBF5F302EBC30452F86B
:108F14003330834205D802D204F10802EDE76068D9
:108F240030BD2146E9E700BF1867030008B5FFF725
:108F3400DFFF024B002808BF184608BDDA650300AE
:108F440007B50B4688B9124B1248134AC01A0E23B0
:108F5400C0080093114B0004114940F00100FEF7D2
:108F640057FD0E2003B05DF804FB4BB9084B0948CC
:108F74000C4AC01AC0080E2300930004074BEBE709
:108F840003601B68114603B05DF804EB184700BF8B
:108F9400D46203006C630300916B0300D26A030084
:108FA400966B03000D6C0300F7B580B92D4B2E486A
:108FB4002E4AC01AC0080E242D4B009400042D49DB
:108FC40040F00100FEF724FD204603B0F0BD4AB98D
:108FD400244B2548284AC01AC0080E2400040094D3
:108FE400234BECE7D0F800C0BCF1000F09D11D4BB6
:108FF4001D48224AC01AC0080824000400941C4BCF
:10900400DDE74BB9174B18481D4AC01AC00809249C
:1090140000040094164BD2E78E0709D0114B124876
:10902400184AC01AC008102400040094104BC6E764
:10903400C668B1420BD34C1E05691C44AC4206D829
:10904400DCF80840A44603B0BDE8F0406047054B97
:1090540005480D4AC01AC008102400040094044BAB
:10906400ADE700BFD46203006C630300916B03009F
:10907400E46A0300966B0300BF6B0300076C0300F4
:10908400C66B0300CA6B0300E16B03002DE9F341D7
:1090940088B93D4B3D483E4AC01AC0080E243D4B9A
:1090A400009400043C4940F00100FEF7B1FC204666
:1090B40002B0BDE8F0814AB9334B3448374AC01A8C
:1090C400C0080E2400040094324BEBE7D0F800C033
:1090D400BCF1000F09D12C4B2C48314AC01AC008EE
:1090E4000824000400942B4BDCE74BB9264B27489B
:1090F4002C4AC01AC008092400040094254BD1E767
:109104004768D7F80480B3FBF8F708FB17374FB16B
:109114001D4B1E48244AC01AC008092400040094A8
:109124001C4BBFE78F0709D0174B18481F4AC01ABA
:10913400C008102400040094164BB3E712F0030F88
:1091440009D0114B11481A4AC01AC008102400044F
:109154000094104BA6E7C768B9420BD34C1E0569AF
:109164001C44AC4206D8DCF80C40A44602B0BDE86E
:10917400F0416047044B05480E4AC01AC008102449
:1091840000040094034B8DE7D46203006C63030076
:10919400916B0300F66A0300966B0300136C0300E3
:1091A400076C0300C66B0300196C0300436C0300D7
:1091B4005B6C03007E6C0300F7B580B92A4B2B4827
:1091C4002B4AC01AC0080E242A4B009400042A49D2
:1091D40040F00100FEF71CFC204603B0F0BDD0F8BF
:1091E40000C0BCF1000F09D11F4B2048234AC01A0C
:1091F400C0080824000400941E4BE8E74AB91A4B3F
:109204001A481F4AC01AC008092400040094194BC4
:10921400DDE74768D7F800E00EF1FF370F4209D0C9
:10922400114B1248174AC01AC008102400040094B5
:10923400104BCCE7C768B9420CD34C1E05690EFB32
:109244000244AC4206D8DCF81040A44603B0BDE8A2
:10925400F0406047044B05480B4AC01AC00810246C
:1092640000040094034BB2E7D46203006C63030070
:10927400916B0300096B0300966B0300076C0300FA
:10928400C66B03001C6B0300426B03002DE9F04125
:1092940008B10368C3B90E4E0E4B14229B1B002465
:1092A400B3FBF2F3374602FB03F5A54201D10020DC
:1092B40008E03B5930190BB91434F6E7DB699847D9
:1092C4000028F9D0BDE8F081DB69BDE8F04118471A
:1092D400E82A0020102B002029DF704728DF704780
:1092E40070B503689D6886B004460E466DB11422BD
:1092F400002168460CF07CFBA36805932379019652
:109304002BB1012B0DD06846A84706B070BD0123D0
:109314008DF8003023690293E3680393636904932F
:10932400F1E702238DF80030E3681B030293F5E7AD
:109334000846704700207047024B187A003018BF67
:109344000120704730330020034B187A0122B0FA11
:1093540080F05A74400970473033002008B5104635
:109364001A460CF01CFB002008BD000008B51422AE
:10937400002104480CF03CFB0348FFF7AEF8002042
:1093840008BD00BF303300202033002010B5094C45
:10939400094B43602046FFF7F2F940B90BF00AFC91
:1093A4001C2320748C2205490548FFF783F800200C
:1093B40010BD00BF30330020B46C03009432002091
:1093C4002033002070B5244D244E2B7A2C463BB913
:1093D40023492448FFF7DDF8306008B9686070BDA0
:1093E4000223237233681A7972B1012A24D01846F1
:1093F4000321FFF775FF002323726360184919489E
:10940400BDE87040FFF7F0B8D3E90520121AB2F5B1
:10941400805F28BF4FF48052D3E903159208012AD4
:10942400014438BF01222844FFF756FF50B11128E8
:10943400DDD101232372D2E7D3E903021044FFF7FD
:109444004DFFF3E7237C002BC9D10146BDE87040F2
:10945400022000F009B800BF303300204833002058
:10946400443300202033002038B5831E012B45D817
:10947400234C237A002B41D0022B09D1032830D06E
:10948400204B1B680022E2601A793AB1012A22D0EB
:10949400637C7BBBBDE83840FFF794BFD3E905127A
:1094A4008D1AB5F5805F94BF521902F580529A6106
:1094B4009142EDD102284FF0000308BF19462372F0
:1094C400104B18BF0D211868FFF70AFF0E490F480B
:1094D400FFF78AF8DCE71A6901321A615B699A427C
:1094E400E7E7E3680133082B01D8E360D0E7002302
:1094F400E360DFE7BDE838400BF04CBB38BD00BF8C
:10950400303300204833002044330020203300202F
:1095140000F0FD03012B08D1044B00225A74421EB3
:10952400504250411874FFF74DBF7047303300204C
:1095340010B5064C201DFFF722F928B9637C1BB92E
:10954400BDE81040FFF73EBF10BD00BF3033002020
:109554002DE9F34180460D460F4801A916461F46E2
:10956400FEF7DDFF0446A8B11C2200210CF040FAEE
:109574002D0B0123237101A9C4F80080A760E560C5
:1095840066610548FEF7F5FFFFF7D2FF002002B041
:10959400BDE8F0810420FAE7203300202DE9F743E9
:1095A40081468846104801A917461E46FEF7B7FFB4
:1095B4000446B0B11C2200210CF01AFA00250A9BC3
:1095C400A36001A92571C4F80090C4E90378666119
:1095D4000548FEF7CEFFFFF7ABFF284603B0BDE812
:1095E400F0830420FAE700BF2033002043681B689F
:1095F40018470000024B5B6803B11847704700BF6F
:1096040050330020020600F00F034CBF0248034809
:10961400DB001844704700BF5C330020A4330020F3
:1096240008B5FFF7EFFF016009B9416008BD4B6859
:109634001B684360FAE70000024B01465A68186849
:10964400104700BFA433002038B5831EDBB2062BBD
:1096540098BF194A194C98BFD25C2378A3F102032E
:10966400DBB288BF0022062B9ABF1349CB5C0023D0
:109674009342054603D0A2B1114802F033FF022DF4
:1096840001D0082D10D101232278022A01D0082A02
:109694000CD101229A4202D053B104F0F9FA257098
:1096A40038BD02F059FFEAE70023EDE70022F1E7B5
:1096B40004F0E4FAF3E700BFE06C03001C3500207B
:1096C400202B00200378052B73B504460CD12F4AB8
:1096D400D2F88434D2F8802412F0FF0F04D12C4A3B
:1096E400DBB2052B08BF144623782BBB294B1D681E
:1096F400DDB902A800F8045D274DFEF765FD2A6870
:1097040012B9264B62881A8001212348FFF714F806
:109714009DF80400FEF77CFD214B1B6813B1012169
:10972400204698472B6802B070BD2B6860889B6800
:1097340098472B685D68DBE701A91A48FEF7EFFE3E
:1097440005460028EFD02368036002A8002600F82D
:10975400056DFEF739FD114B0F481B880268013374
:109764009B1AEB803146FEF7A6FFA8809DF8030004
:10977400FEF74EFD01A90B48FEF7FBFE084B1B68E4
:109784000146002BCFD020469847CCE7007002401A
:10979400F86C03001035002018350020EC3300204D
:1097A40050330020F8340020FFF78CBF012806D086
:1097B40002D3022805D070470348FFF783BF03484C
:1097C400FBE70348F9E700BFEC6C0300F06C03000F
:1097D400F46C03000148FFF775BF00BFFC6C030085
:1097E4002DE9F04F87B006AC002644F8106D05460D
:1097F4008946924698466B6800225F682946012391
:109804002046B84740B98DF8060004900446074640
:10981400BE4203D805202AE00136ECE76B680DF15F
:109824000602D3F804B02946012304A8D8476B687C
:109834000DF10702D3F804B02946012304A8D84740
:109844009DF807304B459DF8063015D1544511D18C
:10985400109A136088F8003088F801906A68023B17
:109864005468294608F1020204A8A047002007B062
:10987400BDE8F08F0134E4B26A68023BD2F804B068
:109884002946002204A8D8479DF806301F44BFE7A4
:109894002DE9F743082305464FF484722F493048D5
:1098A400FEF708FE002856D12E4804F007FA0446B5
:1098B400002835D12C4B18702C4B18602C4B0146CA
:1098C400186048222B480CF093F8482221462A4875
:1098D4000CF08EF8294B3DBBC3E900551D720020E6
:1098E40003F0FEFB18B1852801D0FEF70BFA244ED5
:1098F40096F80890002506F10908ECB2A14504D9B0
:1099040004EB440414EB080423D102A90B2301F84B
:10991400043D1B48FFF76AFE044608B104F0FEF854
:10992400204603B0BDE8F08395E8070083E807000C
:10993400D5E73146E05CFFF773FE6378FAB29342F1
:1099440005D9A3781344DC4207F10107F1D10135AD
:10995400D3E70027F1E70324E2E700BFEE3300205A
:10996400F8340020AD9702001C3500200835002093
:109974000C3500205C330020A43300205033002039
:109984000C6D030010B504F047F908B9082010BDA8
:1099940004F04AF904460028F8D1044803F0D2FB45
:1099A4000028F4D0FEF7AEF92046F0E7E86C030097
:1099B40004F0BEB804F09CBC4FF08043D3F83824C4
:1099C400920702D50348FFF77DBED3F83824D107A8
:1099D400F4D47047FD6C030007B502A8822300F895
:1099E400043DFFF76FFE03B05DF804FB2DE9F3417E
:1099F400037A00F109040325064615FB03452746AF
:109A0400AC4231D01CB394F80180002106E0E05C44
:109A1400FFF7F8FD03680131002B36D1CBB298452E
:109A240003D9A3780B44DC42F1D10334E8E731468F
:109A3400E85CFFF7F5FD6A785FFA88F39A4205D986
:109A4400AA781344DD4208F10108F0D10134337AD5
:109A5400E5B2AB4203D905EB45057D1901D10C4BA9
:109A640005E04FF00008E6E70024F0E713681A6801
:109A7400002AFBD102A91E600B2301F8043D3046E5
:109A8400FFF7B4FD02B0BDE8F0811120FAE700BF92
:109A940008350020024B1878003018BF01207047A9
:109AA4001435002000F00F03072B10B5044604D82A
:109AB40004F02EFA204604F0E5FC2046BDE81040F0
:109AC40004F090BC04F05CBC014B1868704700BF04
:109AD4000835002070B50A4B1B687BB11E7A002242
:109AE400D5B2B54201D31B68F6E7013202EB42045A
:109AF4001C44A4798442F3D101B10D70184670BDA1
:109B0400083500201146FFF771BD08B500F00F03BA
:109B1400082B07D8FFF776FD006818B1BDE80840A8
:109B2400FFF764BD102008BD38B5054B05461C6819
:109B340004B938BD29462046FFF758FD2368F6E7E7
:109B44000835002038B5074B05461C680CB90620BB
:109B540038BD29462046FFF749FD0628F8D1236879
:109B6400F3E700BF0835002038B504460D4604F07D
:109B7400E6F848B1054B1B78022B05D1294620464F
:109B8400BDE8384004F0DEB8082038BD1C3500209C
:109B940038B504460D4604F0D2F848B1054B1B789D
:109BA400022B05D129462046BDE8384004F042B9CD
:109BB400082038BD1C350020F8B543689B6805466D
:109BC4000C46164613B92EB1072002E09847062822
:109BD400F9D0F8BD2B7AA34213D9093504EB440418
:109BE4002C446778F3B29F4201D80020F1E76278F1
:109BF4009A4208D9A219A378D05CFFF753FF013623
:109C0400F0E77378FFDE00231B78FBE74368DB682B
:109C140070B505460C4603B198472B7AA34213D975
:109C2400093504EB44042C4400256678EBB29E42CB
:109C340000D870BD62789A4209D96219A378D05CC1
:109C440004F09EFB0135F1E700235B78FFDE00237F
:109C54001B78FBE743681B6903B118471846704734
:109C640070B5084B1C6804B970BD267A0025E9B2AA
:109C7400B14201D32368F5E700222046FFF79CFF99
:109C84000135F4E70835002070B5084B1C6804B9A9
:109C940070BD267A0025E9B2B14201D32368F5E705
:109CA4002046FFF7B3FF0135F5E700BF0835002074
:109CB40038B50478092C054620D023D8032C00F0AD
:109CC400BC8012D8012C00F0A68040F28D800320C5
:109CD400FFF7BAFC0220FFF78DFC2846FFF724FFAC
:109CE4002846BDE83840FFF7A7BC052CF8D0C0F0E3
:109CF400B380062C00F0BF80082C13D12046FFF758
:109D040079FC95E0812C0ED005D80F2CF6D0802C50
:109D140044D00A2CF1E7832C4CD021D3842C53D08B
:109D2400852CDDD038BD5E48FFF786FC5C48FFF724
:109D3400FBFE0D20FFF75EFCFFF7A6FF00F0B9F96C
:109D4400584B1B6853B9584B187A00F0010003F0C4
:109D54003FFF0120BDE83840FFF776BC0120F4E75F
:109D6400FFF792FF04F0A2FA0020FFF76DFC4F48C2
:109D7400FFF7DAFE4D48FFF75FFC0E20FFF73AFCD1
:109D84004B4B1B78023BDBB2062BCBD8494AD35C46
:109D9400002BC7D0BDE8384002F0DEBB444B1B7833
:109DA400062B05D0072B01D0052BBBD10220D1E710
:109DB4000820CFE73E4B1B78032BB3D104F0B4FA51
:109DC4000028AFD00420C5E7394B1B78032B05D1FD
:109DD40004F0AAFA10B10420FFF736FC03F02EFFBA
:109DE40000289FD00620B5E7314B1B78032B01D008
:109DF400082B02D13048FFF75BFF0020FFF7FAFB86
:109E0400284B1C68002C8DD020462946FFF7EEFB1A
:109E140023685C68F6E7FFF737FF00F041F902209A
:109E2400FFF712FC2046FFF7E5FB2846FFF704FC8A
:109E34002846BDE83840FFF777BE1D4B1B78082B3A
:109E440006D10220FFF700FC03F02CFF0320EAE711
:109E54000520FFF7F9FBF9E70320FFF7CBFB1748D1
:109E6400FFF7EAFB1548FFF75FFE114B1B78062B43
:109E74009CD107206EE78078FFF7C4FB294643682E
:109E84000068984700283FF44DAFA87800F00F030E
:109E9400013B062B3FF646AFBDE8384004F012B84C
:109EA400FE6C03000C35002050330020FF6C0300CF
:109EB4001C350020E06C0300006D0300016D0300FD
:109EC40073B5234D002301932B6823B921492248FC
:109ED400FEF75FFB28602C68ECB1A68886B1E388A6
:109EE400B3F5006F24BF0023E380E388ADF80630A8
:109EF4005A1C013EE280A68001A8FFF7D9FE07E0C4
:109F04002046FFF7D5FE13491348FEF76DFB2E607C
:109F1400012002B070BD114B18680028F9D002A8C6
:109F240000F8054DFEF750F90D4B0C481A88B2F5B0
:109F3400006F28BF1C801A88ADF80620511C1980B8
:109F44000121FEF70FFC9DF80300FEF761F9D3E74A
:109F5400203500204C330020F83400201835002030
:109F6400EC330020002070472DE9F04F4B6887B098
:109F740081460C4602925BB90B681B681B683BB9AF
:109F84008D682DB9C0E90055284607B0BDE8F08FAB
:109F940003F094FFE768029B9F4228BF1F464FF0DF
:109FA400000804F1100383460197464601250393F4
:109FB400019B002B2DD0A368019A616893429A46B5
:109FC40028BF924641B352460BEB06000BF0E7FC68
:109FD40000236360A268E3680199A2EB0A02A3EB81
:109FE4000A03A1EB0A01A260E360019156440ABB93
:109FF400B8F1000F38D02268126812682260002B72
:10A0040030D02368D3B963601EB1029BB34288BFCA
:10A014000025C9E900B6B7E7002BDBD02168039817
:10A024004B680BEB0602D3F804805346C0474FF04D
:10A034000108CFE7002B08BF0025B9E70DF1180A86
:10A0440000234AF8083D21684B685B6800221F46DC
:10A0540050460123B84708B92061A9E7A368013332
:10A06400A360F0E71D46A3E7002BCAD145469FE74E
:10A07400084B1A7882420CD0052818BF064A18707B
:10A0840018BF137805481CBF23F002031370FFF7B1
:10A094000FBE7047303500204C3500201C6D030086
:10A0A40008B50020FFF7FEFC8020BDE80840FFF75C
:10A0B400F9BC08B50020FFF705FD8020BDE8084085
:10A0C400FFF700BD38B505460C4603F0A3FFA842D0
:10A0D40005BFD4E90001034B1020C3E9000108BF08
:10A0E400002038BD503500207FB5C38893421D46FB
:10A0F40028BF154693420E46144624D9802003F007
:10A1040019FEB4FBF0F303FB1040B0FA80F04009F1
:10A11400039004A8002300F80D3DCDE90165FEF786
:10A1240053F801A98020FFF71FFD044620B9074911
:10A134008020FFF7C7FF04469DF80300FEF768F888
:10A14400204604B070BD0020E2E700BF506D03005C
:10A154002DE9F04F0C78062C87B00E4600F00082F3
:10A1640020D8022C3DD003D8012C32D00624F1E1B2
:10A17400032C32D0052CF9D10DF10D00B24D8DF820
:10A184000C4003F0D5FE00232B609DF80D3003F046
:10A194001F02032A00F28881DFE812F02D00220159
:10A1A4007D0165000D2C00F0C98107D80B2C18D057
:10A1B4000C2CDBD10020FFF75BFF12E00E2C00F02B
:10A1C400CD81852CD2D1A14B1B78032BCED1042079
:10A1D40000E00320FFF74CFFC8E79D48FEF7D5FADF
:10A1E40008B90024B6E19B4B01221A60BFF36F8FBC
:10A1F400BFF34F8FF5E7C3F34116A6BBDB099DF808
:10A204000E1000F0A680062916D0082900F09480CC
:10A2140049BB914C022220460BF0EAFB237843F021
:10A22400010222708D4A1278910744BF43F0030360
:10A234002370022288490EE09DF81030022B16D0BC
:10A24400032B69D0012B0ED1BDF81330002B00F085
:10A254007281834912220DF10D00FFF745FF044678
:10A26400062C40F0298103A8FFF76CFC11E1BDF82E
:10A274001370002F00F05F81092F28BF0927FFF713
:10A2840023FC4FF009080446B14674BB724C75496F
:10A294003A4620460BF083FB2671A4F80280FFF7B0
:10A2A400F9FB18B1E37943F02003E371FFF70CFCE9
:10A2B4006D4BC3E900049F60BDF81320DA6001A868
:10A2C40000238DF80430FDF77FFF68498020FFF7F5
:10A2D4005FFC044620B966498020FFF7F3FE04467C
:10A2E4009DF80400FDF794FFBAE7CDF804904FF011
:10A2F400000A63680022D3F804B02146012301A8B0
:10A30400D84730B9237A1E442368D044F6B21C6877
:10A31400BBE70AF1010AECE7BDF81330002B00F0AB
:10A324000A81BDF811109DF80F0000F087F901466D
:10A33400002898D002788EE7444A1278052A03D17F
:10A34400454A1370012275E7042A8CD1424B1E70D2
:10A35400F8E7032910D009292CD0012983D1BDF8AD
:10A364000F30012B7FF47FAFFFF794FB60B13B4AC2
:10A37400137823F002030FE0BDF80F30012B7FF4B4
:10A3840072AFFFF787FB18B90F2403F039FEE1E041
:10A39400324A137843F0020313702B68002B00F049
:10A3A400CA8003F037FE044600287FF41AAF03F096
:10A3B400E5FDCFE0254B1B78043B012B01D9082494
:10A3C400E3E79DF80F302BB9FFF75EFC0420FFF79D
:10A3D4004FFEE2E7012B55D1FFF742FC0520F6E7DB
:10A3E40001A99DF81100FFF775FB074608B9102471
:10A3F400CBE703AA9DF80410FFF784FB0628044664
:10A404005AD19DF80D2012F0600FBED10F4B9DF86C
:10A41400041018789DF80E30D6092BD073B10A2B8E
:10A42400B3D10528CBD13846FFF714FC0A4932468C
:10A4340008700DF10D00FFF757FE2AE00528BED184
:10A4440005490B800222F4E7503500203035002006
:10A45400583500205C7002405C3500204C350020EB
:10A464003C6D03001D6D030034350020686D03004E
:10A47400506D03000B2B88D10528A0D1BDF80F30F7
:10A48400FF2B01D9072480E79DF80F203846FFF7FA
:10A4940093FB044610E09DF81100020706D19DF8D5
:10A4A4000D3013F0600F0BD006246EE703A9FFF7FD
:10A4B4002CFB06280446F2D0002C3FF46EAF64E770
:10A4C4009DF80E20334B9DF811401B78012A1ED0B5
:10A4D40012D3032AE8D104F00F02072AE4D8BDF806
:10A4E4000F100029E0D1052B02D0002A7FF467AFBA
:10A4F400204603F0E7FC50E7052B02D023077FF446
:10A504005EAF204603F0EAFC234908809AE704F092
:10A514000F02072AC8D8BDF80F100029C4D1052B93
:10A5240002D0002A7FF44BAF204603F0F1FC204612
:10A5340003F0A8FF31E703F059FD52E64FF08043E2
:10A54400D3F8384414F0010401D0022033E601208A
:10A55400FFF78EFD204607B0BDE8F08F01202AE604
:10A56400C8780328F6D00D4D2B688BB100222A60E1
:10A5740069689847044600287FF407AF2B6823B125
:10A58400B378002B7FF42DAE11E703F02FFDE1E744
:10A594000E24FAE6303500205C35002050350020CA
:10A5A40008B1402303600148704700BF5C350020B8
:10A5B40070B54FF0805286B0D2F8A830D2F8A420FB
:10A5C40000926FEA83436FEA934302AD9BB2094A58
:10A5D400094E0D2128460BF08EF9002428460BF075
:10A5E4005CFA844201D306B070BD2B5DA3550134DF
:10A5F400F4E700BF706D03009C35002010B50E4BCE
:10A6040053F8204023780BB9A01C10BD0020FFF79D
:10A61400C7FF2246E4B2131B12F8011BDBB231B9A7
:10A6240001335B00DBB243F440730380EDE7131B9B
:10A63400DBB220F81310EEE7C46D0300034608B93B
:10A64400FFF7DCBF012807D0022805D0032803D078
:10A65400042801D0052809D1054A02EB43035878A0
:10A6640020B1044B53F82030002BE9D1002070476F
:10A67400DC6D0300C46D0300C36903B11847704760
:10A68400036800221A845A62DA62C3E91E22C3E90B
:10A69400202203F134025A677047CA699A4210B5FE
:10A6A40043600CD38C690460086F18440867D01A9F
:10A6B4001C44C86100308C6118BF012010BD01F139
:10A6C400280202608B670020F8E70000F0B5C24D55
:10A6D4000C7A2C70046840F24536B44200F0D582FE
:10A6E40000F2E18040F22736B44200F04982B4F52A
:10A6F4004A7F70D240F21736B44200F00482B4F5B7
:10A70400467F26D2B4F5457F00F0E2810BD8002CB9
:10A7140000F0CC8140F21336B44200F0CF81002324
:10A7240003601846C9E140F21536B44200F0DE81F8
:10A7340040F21636B442F2D100240AB10679165515
:10A74400013402269C420671C0F0DE8140F21733C8
:10A75400B1E140F21A36B44200F0EE8114D8B4F5F7
:10A76400467F00F0DC8140F21936B442D7D1002490
:10A774000AB106791655013400269C420671C0F0D0
:10A78400DC8140F21A3396E140F22136B44200F003
:10A79400EA8140F22236B442C1D100240AB10679DA
:10A7A40016558E4E0F7A3678DFF834C2B74204F16C
:10A7B400010440F25A8301F1090706EB460607EB50
:10A7C400060E9C42BE5DCCF800E00671C0F0D98153
:10A7D40040F227336FE1B4F54D7F00F0108239D891
:10A7E40040F22D36B44200F0E6811CD8B4F54A7F1D
:10A7F40000F0D28140F22936B44290D100240AB14B
:10A8040006791655764E0F7D36683678B74204F1D0
:10A81400010440F0E98102269C420671C0F0CC811B
:10A8240040F22D3347E140F22E36B44200F0CF819E
:10A8340040F22F36B4427FF472AF00240AB1067995
:10A84400165501340026A342067100F2F28140F24B
:10A854003D3330E140F23D36B44200F0E98107D89F
:10A8640040F23536B44200F0D68140F23636E1E7A4
:10A8740040F24336B44200F0F081B4F5517F80F0E9
:10A88400F88140F24236B4427FF449AF00240AB161
:10A8940006791655013424269C420671C0F0DE81E7
:10A8A40040F2433307E140F25736B44200F0578296
:10A8B400B4F5567F6BD240F24D36B44200F01D829F
:10A8C40032D840F24A36B44200F0FE8116D840F243
:10A8D4004636B44200F0E58140F24936B4427FF492
:10A8E4001EAF00240AB106791655013424269C4271
:10A8F4000671C0F0EA8140F24A33DCE040F24B36A4
:10A90400B44200F0ED81B4F5537F7FF408AF002426
:10A914000AB10679165501348E7D06719C42C0F049
:10A92400ED8140F24D33C6E040F25236B44200F0BD
:10A93400FD8115D8B4F5547F00F0EB8140F2513617
:10A94400B4427FF4ECAE00240AB106791655013402
:10A9540002269C420671C0F0EA8140F25233AAE01A
:10A9640040F25336B44200F0ED8140F25636B44220
:10A974007FF4D5AE00240AB1067916550134242695
:10A984009C420671C0F0EC8140F2573393E040F2F0
:10A994007336B44200F02882B4F55D7F47D240F2AA
:10A9A4005A36B44200F0F4811CD8B4F5567F00F056
:10A9B400E28140F25936B4427FF4B1AE00240AB1C8
:10A9C4000679165501348E7D06719C42C0F0E181F2
:10A9D40040F25A336FE000BFAB350020AA350020A7
:10A9E400B035002040F26E36B44200F0F08140F2FF
:10A9F4006F36B4427FF493AE00240AB1067916553B
:10AA0400AE4EAF4F36683F7896F801C0BC4504F1AE
:10AA1400010440F22F8296F802C03E449C4216F88C
:10AA24000C600671C0F0E18140F2733343E0B4F589
:10AA3400617F00F0F98114D8B4F55E7F04D040F250
:10AA44007D36B4427FF46BAE00240AB10679165504
:10AA540001344026A342067100F2E7814FF461738A
:10AA640029E040F28A36B44200F0F58140F28F3694
:10AA7400B44200F0F08140F28536B4427FF44FAE28
:10AA840000240AB1067916558C4E0F7D3668367847
:10AA9400B74204F1010440F0D4810E6A9C42367836
:10AAA4000671C0F0D98140F28A3304E008240471AD
:10AAB40023B940F2133303600120F0BD0AB10479D5
:10AAC40014700B24012B04710ED84FF44573F2E774
:10AAD40000240AB10679165501340E7D06719C4294
:10AAE40005D340F21533E6E70124F2E700240AB166
:10AAF40006791655013402269C420671FFF41DAEF8
:10AB040040F21633D7E700240AB10679165501340A
:10AB140002269C42067103D34FF44673CBE700240C
:10AB24000AB10679165501344E7E06719C42FFF433
:10AB34001FAE40F21933BEE700240AB10679165558
:10AB4400604E0027013437705E4E37782E78B74256
:10AB540002D340F29A33AEE70926A342067103D822
:10AB640040F22133A7E700240AB1067916550134CF
:10AB740004269C420671FFF411AE40F222339AE798
:10AB840000240AB106791655013400269C42067148
:10AB940003D34FF44A738EE700240AB1067916559D
:10ABA400464E36680134767806719C42FFF427AE2F
:10ABB40040F229337FE700240AB10679165501349F
:10ABC40002269C42067103D340F22E3373E700241D
:10ABD4000AB10679165501344E7E06719C42FFF483
:10ABE4002DAE40F22F3366E78F7DB7427FF42AAE55
:10ABF4000A269C42067103D34FF44D735BE700248D
:10AC04000AB106791655013400269C42067103D315
:10AC140040F235334FE700240AB106791655013462
:10AC240000269C420671FFF409AE40F2363342E737
:10AC340000240AB106791655204E0F7D3668367801
:10AC4400B74204F1010440F0A88005269C42067135
:10AC5400FFF41DAE40F242332DE700240AB1067919
:10AC64001655013400269C42067103D34FF45173E8
:10AC740021E700240AB106791655013410269C42B6
:10AC8400067103D340F2453315E700240AB106796F
:10AC94001655013401269C42067103D340F2463313
:10ACA40009E700240AB106791655013405269C42A9
:10ACB4000671FFF417AE40F24933FCE6B0350020CC
:10ACC400AC350020AA35002000240AB106791655B7
:10ACD400013401269C42067103D340F24B33EAE669
:10ACE40000240AB106791655013403269C420671E4
:10ACF400FFF40EAE4FF45373DDE600240AB1067977
:10AD04001655013404269C42067103D34FF4547340
:10AD1400D1E600240AB106791655013424269C4252
:10AD24000671FFF411AE40F25133C4E600240AB1B7
:10AD340006791655013402269C42067103D340F26B
:10AD44005333B8E600240AB10679165501340526B2
:10AD54009C420671FFF40FAE40F25633ABE600247A
:10AD64000AB106791655013406269C42067103D3AE
:10AD74004FF456739FE600240AB106791655013440
:10AD84000E7D06719C42FFF41AAE40F2593392E6EE
:10AD940000240AB1067916550134374E366877789F
:10ADA400364E3770364E00273770354E3778334E6F
:10ADB4003678B74204D3334F3E7801363E70C3E64B
:10ADC4000726A342067103D840F26E3373E60024CB
:10ADD4000AB106791655013405269C420671FFF422
:10ADE4000CAE40F26F3366E600240AB106791655BC
:10ADF400214E0F7D36683678B74204F1010407D13D
:10AE040003269C420671FFF420AE4FF45E7352E6B3
:10AE14008F7DB7427FF41DAE02269C420671FFF47B
:10AE240014AE40F27D3346E600240AB10679165585
:10AE3400013400269C420671FFF423AE40F28533B0
:10AE440039E68F7DB7420BD100269C42067103D3AD
:10AE540040F28F332FE600240AB1067916550134E7
:10AE6400074F3E7801363E709FE70023CCF8003050
:10AE74001B78FFDE0023FBE7B0350020A935002056
:10AE8400AC350020AA35002010B5044658B908682E
:10AE9400037B202B09D100F10E01072218300AF0A0
:10AEA4007EFD204610BD0320FCE70620FAE7037A66
:10AEB400012B08D9427B012A00F10C0306D9827BBD
:10AEC40013445878704700235B78FFDE00231B7817
:10AED400FBE700002DE9F0430B7889B005460E46E8
:10AEE4000E2B1AD8DFE813F05C0042015C005C0012
:10AEF40019000F00A700190019003F0119005C0098
:10AF04005C005C005C004A78D1094FEA521330D0EF
:10AF140013F0030303D0012B21D006241BE002F01D
:10AF24001F02012AF9D1B478062CF6D105A803939F
:10AF3400FFF736FB03ABF2783179009307460346FB
:10AF44002846FEF74DFC052805D0039A3946701CA7
:10AF5400FFF7CAF80446204609B0BDE8F083B37889
:10AF6400212BDAD1B6F80720072AD6D10168183187
:10AF7400EDE7012BD1D1B3780768202B12D0222B17
:10AF8400CBD1B6F80730002BC7D197F82030B6F8EC
:10AF940003403C8403F0010304F00104A34224D1E0
:10AFA4000024D8E7B6F80730072BB6D108A8002448
:10AFB4004FF4E462BA8100F8154D0E37CDE90573FC
:10AFC4000794FDF701F9204605A9FEF7CDFD0446D7
:10AFD40030B96B4B03A9CDE90335FFF773F8044689
:10AFE4009DF80B00FDF714F9B5E7A4B2002C0CBFD3
:10AFF40003210221FFF740FB002CD1D12B7A012B36
:10B0040040F2B8806B7B05F10C02002B00F0B48099
:10B01400AB7BD05C03F0A0F82846FFF748FF03F0B1
:10B024009BF807F134037C62FC62C7E91E44C7E95C
:10B0340020447B678FE7037A002B00F09F80837A9C
:10B0440000F10901002B00F09780C27AB3788A5C82
:10B054009A42A5D01B06F4780AD524B1032C0CBF60
:10B064000024032477E701212846FFF705FB72E754
:10B07400012C95D003D3032C92D003246BE70668EC
:10B08400FFF715FF3F4BB76A059306F10C038046A3
:10B094000693B7B9F36FF46AB767C6E91F736CB167
:10B0A40006F12C0103C906F1240383E80300F762C7
:10B0B40005A94046FEF76CFD044600E074620021D9
:10B0C400D2E7D6F88490706A4F4528BF4F4606F100
:10B0D40034043A4621460AF062FCF36F3B44C6F856
:10B0E4008030A9EB0703B367F36A00223C44F2679C
:10B0F4007467002B35D006F12C0999E8030006F19A
:10B10400240787E803001446F262B36F706A1BB920
:10B11400746A002CCCD1D2E7B26A716F9A4216D805
:10B124000AF03DFCB36AB26FC6F88030D21AB26737
:10B13400726F1A44726700212846FFF79DFAF36A7A
:10B144007BB199E8030087E80300F462DDE71A465F
:10B154000AF025FCB26FB36AF2679B1AB362736A92
:10B1640013447362D4E70321FFF786FA2846FFF7F6
:10B1740087FA15E76378FFDE1B78FCE75B78FAE76C
:10B184008DAE02009FA602001FB503681B8CDC076E
:10B1940014D5037A012B13D9437B00F10C0493B12A
:10B1A400837BE05C9306CDE901120CBF01230023ED
:10B1B40001A90393FEF7D8FC04B010BD0820FBE7F7
:10B1C40000235B78FFDE1B78FCE70368986F704709
:10B1D400F7B50468238CDB070F4616463BD5656A32
:10B1E400002D32D1A16F91420ED3616F38460AF01F
:10B1F400D6FBA36FC4F880609B1BA367636F3344C3
:10B204006367284603B0F0BDC4E90972FFF74FFE37
:10B21400134B009304F10C030646019369B10A46EB
:10B224003846616F0AF0BBFBA36FA26AD21AA2620E
:10B23400626AC4E91E531A44626269463046FEF7E4
:10B24400A7FC002808BF9220DCE7E36A2BB9C4E915
:10B254000B129220D6E70820D4E71120D2E700BFD2
:10B264009FA6020070B5064E0546002456F8243009
:10B274000BB1284698470134042CF7D170BD00BFA8
:10B28400C0350020033080B240F2FE33984230B51E
:10B294001FD8134B1A783AB91C895D892C4404448D
:10B2A400A4B2B4F5806F0AD91A7DAAB99A8BDC8B43
:10B2B4002244024492B2B2F5806F0DD801220A8072
:10B2C4001446142202FB04335A8910445881002086
:10B2D40030BD48F20860FBE748F20660F8E700BFBB
:10B2E400F43500200B4A0C4B5188142000FB01312B
:10B2F400CB6833B904204968107001220748FDF770
:10B304005BBF05230649137002238B8001220023AF
:10B314000968F3E7D8350020F4350020E82A002036
:10B32400BC36002007B5002305490093054A096887
:10B3340005480823FDF7AAFE03B05DF804FB00BF2F
:10B34400BC360020106E0300E82A002007B5002355
:10B35400009301460823034A0348FDF797FE03B010
:10B364005DF804FB086E0300E82A002013B50023EF
:10B374000C46009301460423074A0848FDF786FE5D
:10B3840038B9074B142202FB04340123237402B09E
:10B3940010BD48F20D60FAE7046E0300E82A0020AD
:10B3A400F435002037B50A480A4B42689C8819686E
:10B3B40053880325033305709BB2002000909B0043
:10B3C40001EB84010448FDF761FE03B030BD00BF0A
:10B3D400D8350020BC360020E82A002010B50146EC
:10B3E4000448FDF79CF81C22044600210AF000FBE7
:10B3F400204610BDA83600204388033300EB8303A6
:10B4040099420BD382884FF6FF739A4208D003887F
:10B4140033B18068431C584258417047022070473A
:10B42400012070472DE9F8430223DFF860800B8088
:10B434000D46174600F5805600F108044FF0010947
:10B44400B4420FD2236801330CD031462046FFF7B3
:10B45400D3FF48B10FB187F8009002280BD14FF405
:10B4640080632B80BDE8F883A368D8F8002093425A
:10B4740001D9C8F800302B886288033313442B8029
:10B484006388033304EB8304DAE700BFEC35002060
:10B49400144A142303FB002070B50B6844680D465E
:10B4A40004F580569BB15C88033403EB8404B442F6
:10B4B4000BD22368013308D031462046FFF79CFFA6
:10B4C400012809D005D30228F1D1002003E0083473
:10B4D400EDE72C60012070BD6388033304EB830423
:10B4E400E5E700BFF4350020436873B505460C4614
:10B4F40073B3254AD1688B422AD31269934227D861
:10B5040013F0030224D121490089098988421FD1FB
:10B514002868996888421BD11D494868834203D929
:10B5240000F5805083420ED38A6993420DD902F507
:10B534008052934209D2012323800020B0FA80F084
:10B54400400902B070BD1346F6E748F20960F5E71A
:10B55400002323801E462388012B01D90020F0E715
:10B56400019601A92088FFF793FF18B923880133B6
:10B574002380F0E7019B2A6899689142F1D16B60BE
:10B58400024B1B892B81DCE7E82A0020D8350020F8
:10B59400F43500202DE9F8431C46204B1B78064661
:10B5A4000F461546002B32D0002A33D0002C31D060
:10B5B400DFF870804FF01409A388012B02D948F2F8
:10B5C40009601AE009FB03F318F80330BBB1A38840
:10B5D4000133A380F0E723681EB199883288914231
:10B5E4000DD11FB119883A88914208D19A68C5E9EA
:10B5F40000230B4B1B892B810020BDE8F8832146D7
:10B60400A088FFF745FF0028E5D12060DFE748F276
:10B614000160F2E748F20460EFE700BFD035002094
:10B62400D8350020F435002008B5074B191D58887B
:10B63400FFF72EFF18B1BDE80840FFF7B3BEBDE821
:10B644000840FFF74FBE00BFD83500202DE9F04F6A
:10B65400A34FDFF8B09289B00646B8463B6823B9D9
:10B664004946A048FCF795FF3860D8F8005029787F
:10B674004B1E052B00F21681DFE813F0060078005C
:10B6840078000A010A0165012EB1974B00225A6025
:10B694004FF4064425E02B79032B1DD8DFE803F093
:10B6A4001502434E91490B78022B084632D00B7D8C
:10B6B400022B4FF001032FD114225343C218002050
:10B6C400C8545068FFF742FE03E001232B71FFF7D3
:10B6D40029FE002800F0D680834B00225A6048F2ED
:10B6E4000D641422002103A80AF082F941F61D53C7
:10B6F4009C4208BF0024D8F8003004941A78023A17
:10B70400042A00F2DB81DFE812F0BC01C801EB017E
:10B71400F301FA010023CFE7734A13700023536047
:10B7240041F61D54DDE772497248002302222B7151
:10B734008A8001220968FDF73FFDCAE76C4C0026A8
:10B744002E712068694DFFF701FE6B4BD4F800C0E1
:10B754005A8814235343EA18EE5451682160A1888F
:10B76400C2F804C011810222A280B2E7B5F814A085
:10B77400AA7DDFF878B1AEB1022AEB8806D914218C
:10B7840001FB0AB1DA1C088902440A81142202FB73
:10B794000ABAC3F57F43BAF80A20FD331344AAF862
:10B7A4000A3075E7142303FB0AB318895C6804EBB9
:10B7B4008004062A05D8DFE802F0274E36441D5AD5
:10B7C400680048F20E64AA7DEB88022A06D9142187
:10B7D40001FB0AB1DA1C088902440A81142202FB23
:10B7E4000ABAC3F57F43BAF80A20FD331344AAF812
:10B7F4000A3076E74148424900234360AB6903605D
:10B80400FFF772FE00285CD00223AB75002300937F
:10B814000423EA1821463748FDF738FC002831D0C4
:10B8240048F20D64CFE72B69002B0CBF01230323DF
:10B83400AB750023009305F10C02042304F1080105
:10B84400E9E70123AB750022EB8800929B002A698B
:10B8540004F10C01DFE7032914BF06230523AB75AC
:10B8640000230093042305F10802E118D3E706231B
:10B87400AB75234B1988214B5868FFF777FD0446B5
:10B884000028A0D109B0BDE8F08F41F61D549AE715
:10B89400002E7FF4FDAE2B79012B35D005D3022B7E
:10B8A4003FF43EAF48F20E641BE702232B710DF107
:10B8B4000A01EB68039303A8CDE90466FFF714FEBD
:10B8C40010B948F209640CE70498BDF80A1083889B
:10B8D400EB8003882B81FFF749FD044629E000BF74
:10B8E400F0350020A8360020D0350020F4350020A3
:10B8F400BC360020E82A0020D8350020B4350020CA
:10B90400C8360020E8350020DFF810A203AA534609
:10B914003146A81DFFF73EFE044670B9BAF804107C
:10B924000498FFF723FD044648F209639C423FF460
:10B93400F7AE002C7FF4D5AEA4E70822314650467A
:10B944000AF056F8F0E7002E7FF4A2AE6E4B1A7B95
:10B95400B2B11E731A78013A062AA3D801A151F88C
:10B9640022F000BF13BA020039BA020057BA02002B
:10B974005DBA0200A9B8020063BA020079BA0200F3
:10B984001A78072AE6D801A151F822F0B1B90200C9
:10B9940059B9020059B90200D7B90200EBB9020043
:10B9A4000FBA02000FBA0200D3B902001A8957492C
:10B9B40001321A8100225A801A730A78B2FA82F28A
:10B9C40052099A720A7DB2FA82F25209DA7201229B
:10B9D40007E04F4958688A884088033202448A80C5
:10B9E40002221A70B6E7494C5A884949142505FBC6
:10B9F40002420868546850608888108102200C60F4
:10BA04008880002111740622EBE70722E9E79A7A7D
:10BA140032B9DA7A8AB900221A705A805A607FE6FB
:10BA24003A4900229A72CA68002AF2D1097C002994
:10BA3400EFD05A80FFF7F8FD4FE70022DA72334A5D
:10BA4400116A0029E7D192F82420002AE3D00122C8
:10BA5400EFE7FFF7A7FC40E7FFF744FC3DE70622CA
:10BA64001A702A4A5B88142101FB03235868FFF7E4
:10BA74006DFC32E707221A7000225A60FFF752FC6D
:10BA84002BE701228DF80C201A89ADF818209A882A
:10BA9400DB68ADF81A20059310E002228DF80C2023
:10BAA4001A89ADF818209A88ADF81A20DA689B7DB7
:10BAB40005929A1F534253418DF81C3003A8FFF797
:10BAC400D1FB002649461348C8F80060FCF78CFDFA
:10BAD40001211148FCF73BFE00287FF4BFADD1E6FD
:10BAE40003228DF80C20DA88ADF818201A89CFE7E4
:10BAF4000422DB888DF80C20ADF81830DEE705232E
:10BB04008DF80C30DAE700BFD8350020F43500207A
:10BB1400BC360020A8360020B8360020CC360020E1
:10BB24004068FFF793BD000008B501210448FCF705
:10BB3400F8FD18B9BDE80840FFF788BD08BD00BF8F
:10BB4400B83600202DE9F3419846374B1B7806465A
:10BB54000D46002B5CD000295DD009884FF6FF7399
:10BB640099425BD06B88002B58D06B689B0758D1E7
:10BB74004AB92F890DF102013846FFF783FB30B132
:10BB840002B0BDE8F08113885788ADF8023001A8EF
:10BB9400FFF724FC044660B9BDF80230234A14219F
:10BBA40001FB032358890338C01B588148F20760FE
:10BBB400E6E700238375BDF8023083826B68036176
:10BBC40080F8008001211A48FCF7B6FD2B882381F8
:10BBD400B8F1030F6B88A38004BF0423A3754FF04F
:10BBE400000508BF3368E06008BFA361E780658192
:10BBF40001A91048FCF7BDFC36B1E36833600E4B75
:10BC040075601B89B5723381FFF78EFF0020B7E79B
:10BC140048F20160B4E748F20460B1E748F2036017
:10BC2400AEE748F20260ABE7D0350020F4350020DF
:10BC3400EC350020A8360020D835002008B5084B84
:10BC44001A68042A09D01968064A42F82100012119
:10BC54001846FCF771FD002008BD48F20B60FBE7B5
:10BC6400C4360020C03500202DE9F04F89B01422DD
:10BC7400002103A809F0BCFE824A137803F0FF01F7
:10BC8400009191463BB103A8FFF7ECFA0026304639
:10BC940009B0BDE8F08F101DFCF771FD05460028C2
:10BCA400F4D140F6F8734FF080521B68DFF800A21D
:10BCB4005C1C04BF744B1B6811695269581C08BF93
:10BCC40002FB01F3CAF810300022A3F540536F4978
:10BCD400CAF80C305046FDF733F906460028D6D191
:10BCE4001C238C226A496B48FCF7E4FB3746B046B8
:10BCF4004FF0030B3446CDF804A0019BD86858F8E4
:10BD0400002018EB000036D0634B9A4240F0B88014
:10BD14004168624B994215D0013399422BD1009B63
:10BD2400DFF884A1002B6ED100225D49CAF800001F
:10BD3400FFF778FBBAF80420022A14BF0822042271
:10BD4400174340E057494FF0140C0CFB04FC01EB83
:10BD54000C024FF0000E01F80CE050600CF11002E0
:10BD64000CF1080C0A446144FFF75CFB47F002073E
:10BD74000134A4B227E0531C02D0474B9A4234D179
:10BD8400021D00F5805C116801312ED10432944506
:10BD9400F9D1454A116829B9022101231060918023
:10BDA40000930EE0142262433E4B4FF0020E9918AA
:10BDB40003F802E03D4A486054800134A1F808E0E9
:10BDC400A4B247F0010708F58058B8F5405F94D154
:10BDD400BBF1010F88BF3D46EDB2022D02D0062D06
:10BDE40023D065BB48F20A6651E72E491422624308
:10BDF40001EB020C0BF1FF33CCF8040003201FFA13
:10BE040083FB8854B4E7274B1422624399184FF0FC
:10BE1400020C03F802C0DAF800204A60234AA1F8B1
:10BE240008C054800134A4B27EE7012389F80030AD
:10BE340003A80023C9F80430FFF714FA27E702A87F
:10BE4400FFF7CCFAC8B10123013D03700A2D09D8CC
:10BE5400DFE805F006080608070807080F110F00B9
:10BE64000023037102A90B48FCF783FBFFF75CFE78
:10BE74000DE70323F5E70223F3E748F2076606E735
:10BE840001327CE7D035002014100010C06C030090
:10BE94001C360020A8360020DEC0ADDEFE011EF1F7
:10BEA400C0360020F4350020BC360020D8350020F0
:10BEB400E82A002073B50D460446C8B1C1B10DF19E
:10BEC4000601FFF711FBB0B10C4BBDF80600666824
:10BED400142202FB003001210C30FCF72DFC6368B6
:10BEE4002E600C336B600123A372002002B070BD7E
:10BEF40048F20460FAE748F20960F7E7F4350020F5
:10BF040013B50446A8B10DF10601FFF7EDFA98B197
:10BF14000C4ABDF80630142101FB0323DA6872B120
:10BF2400A27A62B1DA680020013ADA60A07202B043
:10BF340010BD48F20460FAE748F20960F7E748F2F6
:10BF44000560F4E7F435002002230022FFF7FABD70
:10BF540018B103230022FFF7F5BD48F204607047CF
:10BF6400114B1B7813B50446ABB14FF6FF739842DF
:10BF740014D001A8FFF732FA98B105230370012306
:10BF84000371C48001A90948FCF7F3FAFFF7CCFD5B
:10BF9400002002B010BD48F20160FAE748F20360E5
:10BFA400F7E748F20760F4E7D0350020A836002010
:10BFB4000F4B1B7807B5A3B101A8FFF70FFA98B18F
:10BFC4000623037001A90B48FCF7D3FA0A4B1A782D
:10BFD4000AB101221A73FFF7A7FD002003B05DF830
:10BFE40004FB48F20160F9E748F20760F6E700BF96
:10BFF400D0350020A8360020D835002007B5ADF88C
:10C00400060002A820F8041D01460DF10600FFF702
:10C01400C1FA03B05DF804FB13B502AC134624F86F
:10C02400020D0A4600202146FFF7B4FA02B010BD03
:10C0340013B502AC134624F8020D0A46204600212B
:10C04400FFF7A8FA02B010BD20B119B103680B6064
:10C054000020704748F20460704700003E4B1B7894
:10C064002DE9F74F0446002B6FD0002870D0122220
:10C07400002109F0BDFC394E03232380384B0027EF
:10C08400B1464FF014084FF0010A7589328971687E
:10C094002A4492B251B10868984207D1486800F125
:10C0A4006E6000F5FF300230012802D92088013883
:10C0B400208008FB0790B4F802C0C0686044608028
:10C0C400208905446089258110446081C2F580621D
:10C0D400A08992B2904238BFA28101F1080501F50E
:10C0E400805BAB4518D92968013115D059462846DB
:10C0F4000193FFF781F90128019B15D021D3022870
:10C10400EFD1E18884F810A00131E180ABEB0501A7
:10C11400E58905EBA105E58114361FB1002003B0C4
:10C12400BDE8F08F0127B0E7E1880131E180E189C2
:10C13400688803310144E1816988033105EB810595
:10C14400CFE7A1880131A180F6E748F20160E6E774
:10C1540048F20460E3E700BFD0350020F435002046
:10C16400DEC0ADDEBFF34F8F0549064BCA6802F44B
:10C17400E0621343CB60BFF34F8F00BFFDE700BF06
:10C1840000ED00E00400FA0508B5624B1A680D2AB8
:10C1940008D14FF080420021C2F80C11C2F81011EE
:10C1A400C2F838151B680D2B46D14FF080525A4BFC
:10C1B400D2F80414C3F82015D2F80814C3F82415CF
:10C1C400D2F80C14C3F82815D2F81014C3F82C159F
:10C1D400D2F81414C3F83015D2F81814C3F834156F
:10C1E400D2F81C14C3F84015D2F82014C3F844152F
:10C1F400D2F82414C3F84815D2F82814C3F84C15FF
:10C20400D2F82C14C3F85015D2F83014C3F85415CE
:10C21400D2F83414C3F86015D2F83814C3F864158E
:10C22400D2F83C14C3F86815D2F84014C3F86C155E
:10C23400D2F84424C3F87025364B1B680D2B09D162
:10C244004FF08043D3F80024D10744BF6FF00102BC
:10C25400C3F80024314AD2F8883043F47003C2F89A
:10C264008830BFF34F8FBFF36F8F4FF01023D3F895
:10C274000C22D2071ED52A4B0122C3F80425D3F879
:10C284000024002AFBD04FF01022D2F80C3223F005
:10C294000103C2F80C32224B1A46D3F800140029C9
:10C2A400FBD00021C3F80415D2F80034002BFBD0D6
:10C2B400FFF758FFD3F80022002A03DBD3F8043237
:10C2C400002B23DA164B0122C3F80425D3F80024EB
:10C2D400002AFBD04FF010221221C2F80012D3F82A
:10C2E4000024002AFBD04FF010231222C3F80422AA
:10C2F4000B4B1A46D3F800140029FBD00021C3F8D5
:10C304000415D2F80034002BFBD0D1E7054B064AC4
:10C314001A6008BD3001001000C0004000ED00E0CC
:10C3240000E00140282B00200090D00342DF70473A
:10C3340043DF704738B5084C04F10803054600286C
:10C3440018BF1C4623682BB11A6822605B68284614
:10C354009847F7E738BD00BFDC36002020B9054B0D
:10C3640001225A70FFF7E6BF012802D1014A9070FA
:10C37400F8E77047D436002020B9034B01225A70E5
:10C38400FFF7D8BF704700BFD4360020014B1878A0
:10C39400704700BFD436002038B50E4C2378B3B9AB
:10C3A4000D486360A3602361E36000F00BF9054668
:10C3B40008F000FC08B900F011F901232370074BC1
:10C3C400D3F800340BB10123A370284638BD85256A
:10C3D400F5E700BFD436002061C30200000001402D
:10C3E40037B5184CA378054603F0FF029BB110B192
:10C3F40043680120984700230DF107008DF80730AA
:10C40400FBF7E2FEE3689DF807000133E360FBF706
:10C41400FFFE03B030BD0DF107008DF80720FBF7D8
:10C42400D3FE25B1226913463BB92A602561E3682E
:10C43400002BE7D100F0E8F8E4E79D42F7D01B6851
:10C44400F2E700BFD436002037B502A800230B4C16
:10C4540000F8013DFBF7B8FEE368013BE360E368E5
:10C4640033B9074BD3F8005415B900F0DBF8A570C5
:10C474009DF80700FBF7CCFE03B030BDD436002096
:10C4840000000140012813B50DD003D303281FD0A9
:10C4940002B010BD114B0122C3F88020BFF34F8FAF
:10C4A400BFF36F8FF4E702A800230D4C00F8013DA1
:10C4B400FBF78AFE23780BB9FFF76EFFE3689DF85C
:10C4C40007000133E3600123A370FBF7A1FEDFE75C
:10C4D40000F084F8FFF7B8FFDAE700BF00E100E0FE
:10C4E400D436002037B51B4C6378054603F0FF02B1
:10C4F4009BB110B143680020984700230DF1070059
:10C504008DF80730FBF760FE63689DF80700013380
:10C514006360FBF77DFE03B030BD0DF107008DF8BD
:10C524000720FBF751FE25B1A268134653B92A60D0
:10C53400A5606368002BE7D108F03CFB30B1FFF73E
:10C54400F5FEE1E79D42F4D01B68EFE700F07EF8CA
:10C55400DAE700BFD436002073B502A800230D4CDF
:10C5640000F8013DFBF730FE6368013B63606668D9
:10C5740036B908F01FFB054640B1FFF7D9FE6670D7
:10C584009DF80700FBF744FE02B070BD00F06AF8A6
:10C594006570F5E7D436002050E8002F02EA010365
:10C5A40040E8003C9CF0000FF6D11046704700F1C3
:10C5B4008040002382B0036003680193019B02B0B2
:10C5C40070470000044A137923B9012110601171E6
:10C5D4001846704785207047E8360020084B1A68D3
:10C5E400D20704D4C02283F8002301221A604FF03A
:10C5F40080420123C2F81835024A1370704700BF05
:10C6040000E100E0F036002008B54FF48270FFF737
:10C61400CEFF4FF080430222C3F8042301229A6024
:10C6240008BD00004FF0804208B50223C2F8083369
:10C634004FF48270FFF7BBFF034B01211960D2F85E
:10C644001834DB03FBD408BD0C00004008B54FF4DC
:10C654008070FFF7ACFF4FF080430122C3F804233E
:10C664001A6008BD4FF08042012108B54FF4807074
:10C67400C2F80813FFF79BFF044B1960D2F80C347F
:10C6840003F00113B3F1011FF8D008BD040000400A
:10C69400114B1B6810B563B14FF48070FFF787FF2F
:10C6A4004FF080430122C3F808230C4B00201B6881
:10C6B40098470B4B1B6873B14FF48270FFF777FFF9
:10C6C4004FF080430222C3F80823044B01201B6867
:10C6D400BDE81040184710BD00010040E8360020B6
:10C6E4000401004000F1804000F5C040002382B006
:10C6F400036003680193019B02B0704703681F2B1A
:10C7040083BF03F01F03036001484FF0A04070474C
:10C714000003005007B502AB43F8040D1846FFF7B9
:10C72400EDFF019B00EB8300D0F8003723F4403386
:10C73400C0F80037D0F8003743EA0141C0F80017C9
:10C7440003B05DF804FB00002DE9FF470024CDE9A8
:10C754000244584A584E594D01211368A2F5C0406D
:10C76400012B80B206D1D6F804330B4202D0FFF776
:10C77400B9FF0C430432AA424FEA4101EDD1504BB8
:10C784001B68012B11D14FF4BE70FFF7ABFF4FF0C4
:10C79400A04344F00044D3F820250292C3F8202596
:10C7A400D3F820280392C3F8202814F0FF0F1AD0DE
:10C7B400444F00250126344210D0AB0003F18043DE
:10C7C40003F5C043D3F81005D3F8101557F82530F6
:10C7D400C0F30520C1F3014103B198470135082D89
:10C7E4004FEA4606E7D1002C5CDA364E364FB046A7
:10C7F4004FF0000A4FF0010906EB0A0393F96610A3
:10C804004B1C3AD0CAB222F0C00404AB03EBD403ED
:10C8140013F8081C02F0070309FA03F319422CD099
:10C8240004A840F8104DFFF769FF009B03F5E0737F
:10C8340050F82350C5F30145022D0CBF03210221FA
:10C844002046FFF767FF04A840F80C4DFFF756FF9A
:10C85400019B09FA03F3C0F8203508EB040393F9AC
:10C864003C3058F8233043B19109032903D0022DF9
:10C874001BD1012901D1204698470AF1010ABAF1D6
:10C88400070FB9D14FF0A043D3F820250292C3F883
:10C894002025D7F820350393C7F82035002AA7D1DF
:10C8A400002BA5D104B0BDE8F087032DE5D1022902
:10C8B400E0E700BF006100400060004020610040EC
:10C8C4007C610040F436002000030050014B1B68DB
:10C8D400184700BF683700200023435082B04358F4
:10C8E4000193019B02B070471FB501238DF80030FE
:10C8F400CDE90121D0E900136846984705B05DF8F9
:10C9040004FB7FB5D0F8246105460C46002E5CD0AC
:10C914004FF49271FFF7E0FF02238DF80030D0F856
:10C924008034C0F880340393D0F83C350293E36834
:10C9340001930023C4E906336846D4E900139847F9
:10C94400D5F844317BB14FF4A2712846FFF7C4FFF8
:10C95400A36943B10023C4E90633D5F83C15E26862
:10C964002046FFF7C1FFD5F82031ABB14FF49071E9
:10C974002846FFF7B1FF0123EB60636963B1D5F883
:10C984004C2502920023A2688DF800306361019265
:10C99400D4E9001368469847D5F858319BB14FF451
:10C9A400AC712846FFF798FF636963B1D5F84C254D
:10C9B40002920023A2688DF8003063610192D4E9E9
:10C9C40000136846984704B070BDD0F81031002BAE
:10C9D400B6D04FF48871FFF77FFFA169D0F83C35DA
:10C9E4009942ADD1E369E2686BB1D0F8000220F05E
:10C9F4002000C5F80002A3612369E360E6612046D4
:10CA0400FFF772FF9CE7A361F9E7000001490248C0
:10CA1400FFF777BF94370020008002400023435083
:10CA240082B043580193019B02B07047F0B51A4C91
:10CA340043791A4D44F8232003EB4303EB5C4BBBCF
:10CA440090F904408B78002C4FEA4313E2B2DBB236
:10CA54001BDB134E371987F800330123640902F0F6
:10CA64001F0203FA02F246F8242003680A88C3F876
:10CA7400082543790879C97803EB4303EA18507011
:10CA840091700122EA540020F0BD02F00F02054C1F
:10CA9400A354EAE70820F7E7BC370020B8370020A2
:10CAA40000E100E014ED00E0036801221A6043791C
:10CAB400024A03EB43030221D1547047B8370020E4
:10CAC400024610B500680C464FF48271FFF7A6FFCA
